{
  "abi": [
    {
      "anonymous": false,
      "inputs": [
        {
          "indexed": true,
          "internalType": "address",
          "name": "user",
          "type": "address"
        },
        {
          "indexed": true,
          "internalType": "address",
          "name": "newOwner",
          "type": "address"
        }
      ],
      "name": "OwnershipTransferred",
      "type": "event"
    },
    {
      "inputs": [
        {
          "internalType": "uint256",
          "name": "swapId",
          "type": "uint256"
        },
        {
          "internalType": "bytes32",
          "name": "preimage",
          "type": "bytes32"
        }
      ],
      "name": "claimSwap",
      "outputs": [],
      "stateMutability": "nonpayable",
      "type": "function"
    },
    {
      "inputs": [
        {
          "internalType": "uint256",
          "name": "swapId",
          "type": "uint256"
        }
      ],
      "name": "claimTimeout",
      "outputs": [],
      "stateMutability": "nonpayable",
      "type": "function"
    },
    {
      "inputs": [
        {
          "internalType": "address",
          "name": "buyer",
          "type": "address"
        },
        {
          "internalType": "bytes32",
          "name": "preimageHash",
          "type": "bytes32"
        },
        {
          "internalType": "uint256",
          "name": "unlock_blocks",
          "type": "uint256"
        }
      ],
      "name": "createSwap",
      "outputs": [],
      "stateMutability": "payable",
      "type": "function"
    },
    {
      "inputs": [
        {
          "internalType": "uint256",
          "name": "swapId",
          "type": "uint256"
        }
      ],
      "name": "getSwap",
      "outputs": [
        {
          "components": [
            {
              "internalType": "address",
              "name": "buyer",
              "type": "address"
            },
            {
              "internalType": "address",
              "name": "seller",
              "type": "address"
            },
            {
              "internalType": "uint256",
              "name": "value",
              "type": "uint256"
            },
            {
              "internalType": "bytes32",
              "name": "preimage_hash",
              "type": "bytes32"
            },
            {
              "internalType": "bytes32",
              "name": "preimage",
              "type": "bytes32"
            },
            {
              "internalType": "uint256",
              "name": "unlock_block",
              "type": "uint256"
            },
            {
              "internalType": "bool",
              "name": "complete",
              "type": "bool"
            }
          ],
          "internalType": "struct GauloiFactory.Swap",
          "name": "",
          "type": "tuple"
        }
      ],
      "stateMutability": "view",
      "type": "function"
    },
    {
      "inputs": [
        {
          "internalType": "bytes32",
          "name": "",
          "type": "bytes32"
        }
      ],
      "name": "hash_to_swap_map",
      "outputs": [
        {
          "internalType": "uint256",
          "name": "",
          "type": "uint256"
        }
      ],
      "stateMutability": "view",
      "type": "function"
    },
    {
      "inputs": [],
      "name": "is_active",
      "outputs": [
        {
          "internalType": "bool",
          "name": "",
          "type": "bool"
        }
      ],
      "stateMutability": "view",
      "type": "function"
    },
    {
      "inputs": [],
      "name": "owner",
      "outputs": [
        {
          "internalType": "address",
          "name": "",
          "type": "address"
        }
      ],
      "stateMutability": "view",
      "type": "function"
    },
    {
      "inputs": [
        {
          "internalType": "bool",
          "name": "new_active",
          "type": "bool"
        }
      ],
      "name": "set_active",
      "outputs": [],
      "stateMutability": "nonpayable",
      "type": "function"
    },
    {
      "inputs": [],
      "name": "swap_id",
      "outputs": [
        {
          "internalType": "uint256",
          "name": "",
          "type": "uint256"
        }
      ],
      "stateMutability": "view",
      "type": "function"
    },
    {
      "inputs": [
        {
          "internalType": "uint256",
          "name": "",
          "type": "uint256"
        }
      ],
      "name": "swaps",
      "outputs": [
        {
          "internalType": "address",
          "name": "buyer",
          "type": "address"
        },
        {
          "internalType": "address",
          "name": "seller",
          "type": "address"
        },
        {
          "internalType": "uint256",
          "name": "value",
          "type": "uint256"
        },
        {
          "internalType": "bytes32",
          "name": "preimage_hash",
          "type": "bytes32"
        },
        {
          "internalType": "bytes32",
          "name": "preimage",
          "type": "bytes32"
        },
        {
          "internalType": "uint256",
          "name": "unlock_block",
          "type": "uint256"
        },
        {
          "internalType": "bool",
          "name": "complete",
          "type": "bool"
        }
      ],
      "stateMutability": "view",
      "type": "function"
    },
    {
      "inputs": [
        {
          "internalType": "address",
          "name": "newOwner",
          "type": "address"
        }
      ],
      "name": "transferOwnership",
      "outputs": [],
      "stateMutability": "nonpayable",
      "type": "function"
    }
  ],
  "bytecode": {
    "object": "0x6080604052600060019081556002805460ff1916909117905534801561002457600080fd5b50600080546001600160a01b031916339081178255604051909182917f8be0079c531659141344cd1fd0a4f28419497f9722a3daafe3b4186f6b6457e0908290a350610c0d806100756000396000f3fe60806040526004361061009c5760003560e01c80638c82af79116100645780638c82af79146102755780638da5cb5b1461028b578063944eff63146102c3578063a4782e81146102d6578063f09c5829146102f6578063f2fde38b146103a057600080fd5b80631a8012e4146100a15780634a0d89ba146100d05780636e1d7a65146101f857806381c4d3441461023357806386e773f114610255575b600080fd5b3480156100ad57600080fd5b506002546100bb9060ff1681565b60405190151581526020015b60405180910390f35b3480156100dc57600080fd5b506101976100eb366004610a7f565b6040805160e081018252600080825260208201819052918101829052606081018290526080810182905260a0810182905260c081019190915250600090815260036020818152604092839020835160e08101855281546001600160a01b0390811682526001830154169281019290925260028101549382019390935290820154606082015260048201546080820152600582015460a082015260069091015460ff16151560c082015290565b6040516100c7919081516001600160a01b0390811682526020808401519091169082015260408083015190820152606080830151908201526080808301519082015260a0828101519082015260c09182015115159181019190915260e00190565b34801561020457600080fd5b50610225610213366004610a7f565b60046020526000908152604090205481565b6040519081526020016100c7565b34801561023f57600080fd5b5061025361024e366004610a98565b6103c0565b005b34801561026157600080fd5b50610253610270366004610a7f565b610421565b34801561028157600080fd5b5061022560015481565b34801561029757600080fd5b506000546102ab906001600160a01b031681565b6040516001600160a01b0390911681526020016100c7565b6102536102d1366004610add565b6105e4565b3480156102e257600080fd5b506102536102f1366004610b10565b61078f565b34801561030257600080fd5b5061035e610311366004610a7f565b600360208190526000918252604090912080546001820154600283015493830154600484015460058501546006909501546001600160a01b03948516969490931694919290919060ff1687565b604080516001600160a01b039889168152979096166020880152948601939093526060850191909152608084015260a0830152151560c082015260e0016100c7565b3480156103ac57600080fd5b506102536103bb366004610b32565b61096f565b6000546001600160a01b0316331461040e5760405162461bcd60e51b815260206004820152600c60248201526b15539055551213d49256915160a21b60448201526064015b60405180910390fd5b6002805460ff1916911515919091179055565b60008111801561043357506001548111155b6104765760405162461bcd60e51b8152602060048201526014602482015273737761704964206f7574206f6620626f756e647360601b6044820152606401610405565b600081815260036020526040902060058101544310156104d85760405162461bcd60e51b815260206004820152601760248201527f73776170206e6f7420726561647920746f20636c61696d0000000000000000006044820152606401610405565b600681015460ff16156105295760405162461bcd60e51b81526020600482015260196024820152781cddd85c081a5cc8185b1c9958591e4818dbdb5c1b195d1959603a1b6044820152606401610405565b600181015460028201546040516000926001600160a01b031691908381818185875af1925050503d806000811461057c576040519150601f19603f3d011682016040523d82523d6000602084013e610581565b606091505b50509050806105d25760405162461bcd60e51b815260206004820152601b60248201527f636c61696d207761736e27742073656e7420746f2073656c6c657200000000006044820152606401610405565b50600601805460ff1916600117905550565b60025460ff166106365760405162461bcd60e51b815260206004820152601b60248201527f6372656174696e672073776170732069736e27742061637469766500000000006044820152606401610405565b600034116106865760405162461bcd60e51b815260206004820152601f60248201527f6372656174696e672061207377617020776974686f757420616e7920455448006044820152606401610405565b600060016000815461069790610b63565b919050819055905060006040518060e00160405280866001600160a01b03168152602001336001600160a01b031681526020013481526020018581526020016000801b815260200184436106eb9190610b7c565b81526000602091820181905284815260038083526040808320855181546001600160a01b039182166001600160a01b031991821617835587870151600184018054919093169116179055818601516002820155606086015192810192909255608085015160048084019190915560a0860151600584015560c0909501516006909201805492151560ff19909316929092179091559681529190529390932055505050565b6000821180156107a157506001548211155b6107e45760405162461bcd60e51b8152602060048201526014602482015273737761704964206f7574206f6620626f756e647360601b6044820152606401610405565b600082815260036020819052604090912090810154610804908390610a03565b6108505760405162461bcd60e51b815260206004820152601b60248201527f707265696d616765206861736820646f65736e2774206d6174636800000000006044820152606401610405565b600681015460ff16156108a15760405162461bcd60e51b81526020600482015260196024820152781cddd85c081a5cc8185b1c9958591e4818dbdb5c1b195d1959603a1b6044820152606401610405565b805460028201546040516000926001600160a01b031691908381818185875af1925050503d80600081146108f1576040519150601f19603f3d011682016040523d82523d6000602084013e6108f6565b606091505b50506004830184905590508061094e5760405162461bcd60e51b815260206004820152601b60248201527f636c61696d207761736e27742073656e7420746f2073656c6c657200000000006044820152606401610405565b5050506000908152600360205260409020600601805460ff19166001179055565b6000546001600160a01b031633146109b85760405162461bcd60e51b815260206004820152600c60248201526b15539055551213d49256915160a21b6044820152606401610405565b600080546001600160a01b0319166001600160a01b0383169081178255604051909133917f8be0079c531659141344cd1fd0a4f28419497f9722a3daafe3b4186f6b6457e09190a350565b600081600284604051602001610a1b91815260200190565b60408051601f1981840301815290829052610a3591610b8f565b602060405180830381855afa158015610a52573d6000803e3d6000fd5b5050506040513d601f19601f82011682018060405250810190610a759190610bbe565b1490505b92915050565b600060208284031215610a9157600080fd5b5035919050565b600060208284031215610aaa57600080fd5b81358015158114610aba57600080fd5b9392505050565b80356001600160a01b0381168114610ad857600080fd5b919050565b600080600060608486031215610af257600080fd5b610afb84610ac1565b95602085013595506040909401359392505050565b60008060408385031215610b2357600080fd5b50508035926020909101359150565b600060208284031215610b4457600080fd5b610aba82610ac1565b634e487b7160e01b600052601160045260246000fd5b600060018201610b7557610b75610b4d565b5060010190565b80820180821115610a7957610a79610b4d565b6000825160005b81811015610bb05760208186018101518583015201610b96565b506000920191825250919050565b600060208284031215610bd057600080fd5b505191905056fea26469706673582212200dedb1a674a651a247f5cda72d23087ae26789fd96af454d165ae16d3b20795a64736f6c63430008140033",
    "linkReferences": {}
  },
  "methodIdentifiers": {
    "claimSwap(uint256,bytes32)": "a4782e81",
    "claimTimeout(uint256)": "86e773f1",
    "createSwap(address,bytes32,uint256)": "944eff63",
    "getSwap(uint256)": "4a0d89ba",
    "hash_to_swap_map(bytes32)": "6e1d7a65",
    "is_active()": "1a8012e4",
    "owner()": "8da5cb5b",
    "set_active(bool)": "81c4d344",
    "swap_id()": "8c82af79",
    "swaps(uint256)": "f09c5829",
    "transferOwnership(address)": "f2fde38b"
  },
  "id": 19
}